:040000006F00B033AA
:100004000000000000000000C8020000CA02000056
:1000140000000000380B0000000000000000000099
:10002400380B0000380B0000000000000000000046
:10003400380B000000000000380B00000000000036
:10004400380B0000380B0000380B0000380B0000A0
:10005400380B0000380B0000380B0000380B000090
:10006400380B0000380B0000380B0000380B000080
:10007400380B0000380B0000380B0000380B000070
:10008400380B0000380B0000380B0000380B000060
:10009400380B0000380B0000380B0000380B000050
:1000A400380B0000380B0000380B0000380B000040
:1000B400F2070000380B0000380B0000380B00007A
:1000C400380B0000380B0000380B0000380B000020
:1000D400380B0000380B0000380B0000380B000010
:1000E400380B0000380B0000380B0000380B000000
:1000F400380B0000380B0000380B0000380B0000F0
:1001040000000000380B0000380B0000380B000022
:10011400380B0000380B0000380B0000380B0000CF
:10012400380B0000380B0000380B0000380B0000BF
:10013400380B0000380B0000380B0000380B0000AF
:10014400380B0000380B0000380B0000380B00009F
:10015400380B0000380B0000380B0000380B00008F
:10016400380B0000380B0000380B0000380B00007F
:10017400380B0000380B0000380B0000380B00006F
:10018400380B0000380B0000380B0000380B00005F
:10019400380B0000380B0000380B0000380B00004F
:1001A400000000000000000000000000000000004B
:0C01B4000000000000000000000000003F
:1001C000397101436EC619A0397141536AC866CAB4
:1001D00062CC5ECE19A0397101535AD056D252D496
:1001E0004ED64AD826DA22DC06DE3301614082820E
:1001F00041114AC026C222C406C68282B24D4101C4
:10020000024D924C224CB24B4101024B924A224A7F
:10021000B2494101024992442244B24041018280E4
:100220003D432A876373C3029377F700BDEFADE5C3
:10023000937606FF3D8ABA960CC34CC30CC74CC7D5
:100240004107E36BD7FE11E28280B306C3408A0602
:100250009702000096966780A6002307B700A306C2
:10026000B7002306B700A305B7002305B700A30412
:10027000B7002304B700A303B7002303B700A3020A
:10028000B7002302B700A301B7002301B700A30002
:10029000B7002300B700828093F5F50F9396850091
:1002A000D58D93960501D58D61B79396270097025A
:1002B000000096968682E78086FA9680C1171D8F89
:1002C0003E96E374C3F8A5B701A0B707EFBE37E7C2
:1002D00000E0938707083CC701A0EFF27FF14111CE
:1002E0008545114502C202C402C6EF00F0419307E2
:1002F000000A371401407C82E1473EC64C008D471E
:10030000130504803EC4EF00700FF9477C824C0057
:10031000C147130504803EC6EF00500E130504804C
:100320000546C145EF009019054691451305048027
:10033000EF00D0184101F9BDEFF29FEB01118545A7
:10034000056502C602C802CA02CC231E0100EF00E6
:10035000B03BB7C704013EC66C00B7070002373593
:1003600001403ECA02C802CCEF00D04D854537356A
:100370000140EF001051056171BDEFF27FE73714C6
:100380000140AA840146A14513050480EF00101323
:10039000C145130504800146EF005012A68537358C
:1003A0000140EF00B04F894537350140EF00504F15
:1003B0007DD9371501400546C14513050580EF007D
:1003C000F00F89BDEFF2DFE237140140AA84054641
:1003D000A14513050480EF00700EC145130504808C
:1003E0000146EF00B00DA68537350140EF00104BF8
:1003F000894537350140EF00B04A7DD937150140B6
:100400000546C14513050580EF00500B21B5EFF2FD
:100410003FDE371401400146914513050480EF008B
:10042000F00913054006EF00D06505469145130518
:100430000480EF00B00813058007EF009064454585
:100440002D3F13058007EF00D0631305100B3537E0
:1004500015458D3F1305C003B5371305C0039D3700
:100460001305200B193F1545B13F1305C003993FF4
:100470001305C003813F1305300B0137154599372C
:100480001305C00381371305C0032D3F15451D3FDC
:100490001305C003053F1305C0032D371305400B9B
:1004A000E93D0D45053713056003C13D1305000AFD
:1004B000113F1305A003D1351545293713059002C7
:1004C0006D3D89BBEFF23FD1AA891305A0023684A6
:1004D000AE8432895D3513D58900ED3513F5F90FFA
:1004E000D53513558900F93D1375F90FE13D130515
:1004F000B002613513D58400F13513F5F40FD93509
:1005000013558400C1351375F40F6D3D1305C002FA
:10051000AD35E5B9EFF2DFCD2A849306F007130677
:10052000F0078145014513598400693F91641374B4
:10053000F40F4A85413D2285FD146935FDF8D9B98E
:10054000EFF21FCB3284368933042403FD167D1667
:10055000AE962A96C2064206BA84C1824182060439
:10056000953726946393840075B18A20890421818C
:10057000913D03C5E4FFB935F5B71307F007636193
:10058000A702AE86636EB700EFF29FC632842A865A
:10059000153F135584003D351375F40F25359DB96E
:1005A0008280FD4763DBA700011512054205AD6798
:1005B000938747AB41813E95828001458280EFF26F
:1005C000BFC02A8A32852E84B68A3A8BD93F21C58C
:1005D0004204AA8941800149130C0008A14CC14B77
:1005E000B387290103CD0700814433059A00B3572F
:1005F0009C404205B3F7A7014181568691E35A8694
:10060000A28585049D3FE39294FF050442040509F9
:100610004180E31779FDEDB6EFF29FBDE53D9547CB
:10062000370700202318F70A370700202319F70A95
:10063000239C0180C5B6EFF23FB9AA890149930B0B
:10064000D0062A8C930A0008130BE006131A09013E
:10065000135A0A0193072A01C207C18313060080B7
:1006600063F3FB00628693140601C1800144228576
:10067000050442042686D28541800137E31954FFE0
:100680000509E31569FD9304E00613090008014418
:100690002285050442044E86A6854180F93DE31972
:1006A00024FF8504C204C180E39384FE9387818183
:1006B0009A237D179AA3A9B6EFF29FB02A84AE8A37
:1006C000B28437090020130B8007B70B002095492F
:1006D000130C0007294A354D8307040091E339BE06
:1006E0000357090B930D090B93852B0B6367EB02E3
:1006F00063854703030604008C2103C50D0026878C
:10070000D686753D83D70D00A1072390FD00830792
:1007100014006380A7050504C1B79E2123903D0105
:10072000C907C207C1839EA16370FC0226852137D9
:10073000B70700209385270B9E2113878181B91766
:100740009EA11E2385071EA383070400E39447FB95
:10075000D9B7090423903D0141B7EFF27FA9854540
:1007600037050010EF00207C854537050008EF00B5
:10077000807B0545552B1145A521A9679387575ABD
:100780006309F5020545652B13051004EF00807B16
:1007900065DD13050010C12B0545E12BEF00500866
:1007A00021657D15EF003005A9659385555A1145E2
:1007B0001129EF00F006B9BCEFF29FA32A84EF00E5
:1007C000E07D0566130606E1B376C5029307C00314
:1007D000B73500009385C5A93356C5023377F502B6
:1007E0001376F60F2285B3D6F602EF00D0506FF0E5
:1007F0007FA2EFF2FF9F854537050040EF003018DC
:1008000009C9138501844D3F854537050040EF0038
:1008100090186FF03FA0EFF2BF9D0111854505458F
:10082000EF006070B707002083A7470B1307803ED7
:100830004C08B3D7E70237050040231B0100FD1722
:10084000FC829307703E3ECCEF0030069307C01247
:100850007C8685475C87680085473EC885290546B4
:10086000854537050040EF0070108545370500408D
:10087000EF00500E05616FF0FF99EFF27F972A8429
:10088000EF00C0718566938606E13376D5021307C3
:10089000C003D145B356D502B377E502228533575D
:1008A000E6026146B3F6C60237360000130646A8D4
:1008B000EF00B03D6FF01F96EFF21F910945212127
:1008C000EF009019716513050520EF00F01EEFF0A1
:1008D000DFA0EFF07FA6253E37150140054689458C
:1008E00013050580E12E416413050480353383D55B
:1008F000E18203D5C1820D67130747AB9306000859
:100900001306000835391305007DEF009017130515
:100910000480B704002037040020FD3937BA0000F6
:100920001304040093848402938741828C4313054B
:100930008A0A938BC1811387150098C3EF00102397
:1009400083A70B008A07A2979C43B9CF1305803E6B
:10095000EF00301383A70B00416C8A07A2978843EE
:10096000EF00103213050C804539C53B6D351385FA
:100970000184213713060C809305FCFF1385018445
:10098000253B1305803EEF00D00F83A70B00130615
:100990000C80138717008A0723A0EB00A2978843D7
:1009A0009305FCFF113B49B723A00B00938B0182F9
:1009B00083A70B008A07A6979C43A1CB1305803E13
:1009C000EF00300C83A70B00416C8A07A697884381
:1009D000EF00102B7D4589314933353D1385018466
:1009E000693D7D469305FCFF13850184F1311305B4
:1009F000803EEF00100983A70B007D461387170088
:100A00008A0723A0EB00A69759BF83A781821147CD
:100A100023A00B00B3E7E7020D47938B8182636647
:100A2000F700416513050580C53E83A70B0013053C
:100A3000803E850723A0FB00EF00B004F5B5B71793
:100A400002409843B706FFF041111367170098C39F
:100A5000D84337060200758FD8C39843B706F7FE10
:100A6000FD16758F98C39843B706FCFFFD16758F6A
:100A700098C3D843B70601FFFD16758FD8C39843B6
:100A8000B70600ECFD16758F98C33707FF0098C7AF
:100A900023A6070202C402C69843C166558F98C3B5
:100AA000B716024005679C42F18F3EC6A2478507F4
:100AB0003EC4B24781E7A247E397E7FEB71702407B
:100AC0009C431397E7006357070685473EC63247A6
:100AD0008547631FF704B7170240D843B706C1FF25
:100AE000FD16D8C3D843D8C3D84313670740D8C32B
:100AF000D843758FD8C3D843B7062900558FD8C3BC
:100B00009843B7060001558F98C398439316670022
:100B1000E3DD06FED843B7160240719BD8C3D84325
:100B200013672700D8C32147DC42B18BE39EE7FE61
:100B30004101828002C661BF01A09701002093811C
:100B400061D7177100201301E14B17B500001305A1
:100B5000658497F5FF1F9385E54A1386818163FAC3
:100B6000C5008322050023A0550011059105E3EA85
:100B7000C5FE13858181938581856377B500232028
:100B800005001105E36DB5FEFD42739002BCAD4258
:100B900073904280B76200009382820873900230A3
:100BA00097F2FFFF9382424693E2320073905230F5
:100BB000EFF0FFE897020000938242D07390123466
:100BC000730020304111B777004002C6938707C0F9
:100BD0003EC6B2473E952AC6B2478CC341018280C9
:100BE0004111B777004002C6938707C03EC6B2479F
:100BF0003E952AC6B2478A23410182809C4513F75D
:100C0000070113F8F70001C7D8413368E8008E21C7
:100C100013F7F50F39C318418146854E3D4F930FA9
:100C2000800293028004214E3396DE00B3F8C500A3
:100C3000631116039398260033131F011343F3FF28
:100C40003377E300B318180133E7E800639FF70533
:100C500050C98506E39AC6FD18C11307F00F6375E6
:100C6000B70454412146854E3D4F930F80029302B5
:100C70008004414EB398CE0033F715016392E80229
:100C80001317260001173313EF001343F3FFB37656
:100C9000D3003317E800D98E639DF701232A15018D
:100CA0000506E319C6FD54C18280E39457FA10C9C2
:100CB0004DB7E39757FE23281501DDB719C20CC9BC
:100CC00082804CC9828023A8A182828003A70183ED
:100CD000894710216311F70214318D4763EDD70066
:100CE0003C219A0637E700E09607D58F93F7F70F78
:100CF00032972300F7405441054793575600331766
:100D0000C70089CA938707048A07B7E600E0B69749
:100D100098C3828093870706B7E600E08A07B697F4
:100D200098C30F1000008280377700401C4309C52C
:100D300093E707101CC3828093F7F7EFE5BFB7175F
:100D40000240238007022380070205476306E5006F
:100D500011476306E50082802380A7028280154741
:100D60002380E7028280371702401C535D8D08D331
:100D7000828001C9371702401C53A166D58F1CD34E
:100D80008280B71602409C5261777D17F98F9CD202
:100D90008280371702405C439146B18B6385D70050
:100DA000A1466382D706B7177A00938707201CC134
:100DB000371602405C42370700201307070491836F
:100DC000BD8BBA9794231C41B3D7D7005CC1544262
:100DD000A1829D8ABA969422B3D6D70014C55442F4
:100DE000AD829D8A36971823B3D7E7005CC5584279
:100DF0003983937637001387818036971823B3D7CA
:100E0000E7021CC982805C435843C166C983758F61
:100E1000B7F6FF1F83A6C670BD8B89071396160110
:100E200063480600C54601466392D702C94739A800
:100E30008946638FD702BD46638ED702C146638E53
:100E4000D702C54601466393D700C1471DEF374718
:100E5000024003270780418B05C737177A00130725
:100E60000720B307F7021CC121D61C41858381B737
:100E700001466DBF0546B547D1BF0146BD47F9B72D
:100E800037173D0013070790E9BFB7150240D85543
:100E90009316F700D85563DF060411833D8B930644
:100EA000170037177A00130707203357D70218C1E6
:100EB000D455A182BD8A8DE295463307D7020583BA
:100EC00018C137170240585714413D8B050733D7D7
:100ED000E60218C1184171B785456394B600E5462E
:100EE000E9BFBD456396B600D1463387E602C9BF68
:100EF0008906E5BF3D8B9306170037177A00130765
:100F000007203357D702F1B799C5371702401C4F56
:100F10005D8D08CF8280B7170240984F1345F5FFCB
:100F2000798D88CF828099C5371702405C4F5D8DDF
:100F300048CF8280B7170240D84F1345F5FF798D0F
:100F4000C8CF82809357550005476399E700B717CC
:100F500002409C4333D5A7000589828009476396E8
:100F6000E700B71702409C53F5B7B7170240DC53B0
:100F7000D5B7B737004003D74780136707012392DF
:100F8000E78082803737004083574780C207C1839C
:100F9000BD9BC207C1832312F78082803736004091
:100FA000835686810357868142074183E31AD7FE21
:100FB000373600408356C6818357C681C207C18336
:100FC000E39AD7FEB735004003D6858103D58581E6
:100FD00042054181E31AC5FE630CA700B736004005
:100FE00003D7C68183D7C681C207C183E39AE7FED0
:100FF00042055D8D8280EFF2AF9F41112AC6953F79
:101000003245B7370040135705013D8B4205239405
:10101000E78041812396A780B53741016FF08F9F0C
:101020003737004083574780C207C183DD9BC20723
:10103000C1832312F7803737004083574780A18B45
:10104000EDDF82801A218D6793870704B6217D8F9B
:101050009E21D58FD621D58FF621D58F9625D58F78
:10106000B625D58FD625D58FF625D58FD98F1EA13C
:101070005A2DFD779387F77FF98F5EAD9E291EA9C4
:1010800082801E2189C593E707041EA18280C207C2
:10109000C18393F7F7FBC207C183C5BF4EA582800A
:1010A0000A256D8D3335A00082801E21373701401F
:1010B000930607C0C207C1836300D504B70600408A
:1010C000630CD502938606406308D502B71600402C
:1010D000138606806302C502938606C0630ED500A0
:1010E00013070740630AE50037570140930607C01E
:1010F0006304D5006316E500BA2193F7F7F8D98F9A
:1011000037170040630CE500130707406308E5004C
:1011100093F7F7CFFA21C207C183D98F1EA1DE2131
:101120005EB59E211EB5B7370140138707C0630E19
:10113000E50093870740630AF500B757014013871E
:1011400007C06304E5006314F5009C251EB98547BC
:101150005EA982801E2189C593E717001EA18280A7
:10116000C207C183F99BC207C183CDBF5E2501C6FB
:10117000DD8D4EA5828093C5F5FFFD8DDDBF1E2957
:101180004A25ED8F4205418189C76D8D3335A00019
:1011900082800145828093C5F5FFC205C1810EA9F9
:1011A0008280EFF2EF841629F577FD17F58FF6218F
:1011B000DA257971D58F1EA95625FD779387379F3C
:1011C000F58FD6212A842EC6D58F9625D58FB625A4
:1011D000D58F5EA55E29C207C18393F7F7CFD98F5C
:1011E0005EA968087D36B747014093870780B245FE
:1011F000631EF402A2576547B387E702984193063E
:1012000040060A07B3D7E70233D7D702B3F7D702AE
:101210001207920793872703B3D7D702BD8BD98FC5
:10122000C207C1831EA445616FE0DFFE9257E1B79C
:1012300091C55E250967D98F5EA582805A25F97709
:10124000FD17F98FD5BF93F5F51F4EA182800A21B6
:101250006D8D3335A0008280B707002083A7470B30
:1012600037177A0013070720B3D7E70293F7F70F72
:10127000238BF1821307803EB387E702239AF18222
:101280008280B7F700E0D8438146799BD8C303D763
:1012900041833306A70290CBD4CB98431367070151
:1012A00098C398431367170298C3D843058B75DF1B
:1012B0009843799B98C38280EFE29FF32A8411655B
:1012C0000111854511058931930700207C8237156E
:1012D00001408D473EC44C00E147130505803EC6E2
:1012E000EFF0DF9122C837440140B70708000C082F
:1012F000130504803ECC02CA231E01005D358545DE
:1013000013050480353705616FE0DFF0EFE2BFECD5
:10131000B7440140AE893289014493840480634517
:1013200024014A856FE07FEE93050004268505378A
:1013300065DDB38789008385070026850504C2051E
:10134000C1811137E9BF1387C1801C439386818512
:101350003E95636BD500B78600209386068063E5D3
:10136000A60008C33E858280FD57EDBF39713EDA85
:101370002ED232D436D63AD842DC46DE938701816B
:1013800022CC804326CA06CEAA8409C41C4C99E309
:10139000228575230C4454102686228536C6EF001C
:1013A0005052F2406244D24421618280011126CA27
:1013B0004AC806CE22CC4EC652C4AA842E8901C584
:1013C0001C4D91E3AD2B9C4C804499E32685852BE5
:1013D00097A70000938747F4631BF402C0405E2484
:1013E000A18BB1C71C48A1C7FD59294A1C4483459C
:1013F0000900FD17B1E91CC463DD07062286A94573
:1014000026852D2AFD576308F502294535A097A7A3
:101410000000938767F26314F4008044C9B797A76C
:101420000000938767EDE31CF4FAC0444DBFA2852A
:101430002685D92255D97D55F2406244D24442498D
:10144000B249224A056182801CC4050963D707009E
:10145000184C63CAE700638845011C4013871700D6
:1014600018C08CA361B722862685C928E31035F9F8
:10147000D9B71C401387170018C0294798A371B724
:1014800093870181AA85884315B735713ECBA6DACB
:1014900036C73AC942CD46CF9387018186DEA2DCAA
:1014A000844363DB05009307B0089CC07D55F6506C
:1014B0006654D6540D61828093078020FC822AC432
:1014C0002ACC814799C19387F5FF3EC83ECE74016F
:1014D000FD572E8426852C00FC8336C2EF00901128
:1014E000FD576355F5009307B0089CC069D0A2472B
:1014F000238007006DBF35713ECBB707008093C7CF
:10150000F7FF3ECE3EC8C1779387872032C536C7E6
:101510003AC942CD46CF3ECA938701812AC42ACC1C
:10152000884334012E862C0086DE36C2EF00900CF4
:10153000A24723800700F6500D618280011122CC62
:1015400026CA4AC806CE4EC6AA842E89328401C550
:101550001C4D91E3ED2697A700009387E7DB631707
:10156000F406C0401C4C1CC45E24A18BC1C31C48A3
:10157000B5CF1C4808409379F90F1379F90F1D8DE9
:101580005C486346F500A2852685692C25E51C4448
:101590000505FD171CC41C401387170018C02380C5
:1015A00037015C486388A7005E24858B81CBA947FF
:1015B0006316F900A2852685B5240DEDF24062443C
:1015C0004A85D2444249B2490561828097A700000A
:1015D000938787D66314F400804469B797A7000007
:1015E000938787D1E310F4F8C044ADBFA285268568
:1015F000212041D17D59D9B741119387018126C25C
:10160000844322C44AC006C62A892E8489C49C4CBD
:1016100099E326852D2697A700009387E7CF631BC4
:10162000F402C0400317C40093170701C18393F667
:101630008700ADEA93F6070195EEA5472320F90050
:10164000136707045AA47D55B240224492440249CC
:101650004101828097A70000938707CE6314F400AE
:101660008044C9B797A70000938707C9E31CF4FA21
:10167000C0444DBF918B9DC34C5889C99307440406
:101680006384F5004A853123232A04025E24232241
:10169000040093F7B7FD5EA41C481CC05E2493E7CA
:1016A00087005EA41C4899EB5E241307002093F783
:1016B00007286385E700A2854A85A1215E2413F7E8
:1016C00017001DC35C4823240400B307F0401CCC62
:1016D0001C480145B5FB8317C40013F707082DD735
:1016E00093E707045EA485B7898B014791E35848C7
:1016F00018C4F9BFDE25011122CC26CA06CE4AC87D
:101700004EC613F78700AA842E8479EBD841634D27
:10171000E000B841634AE0000145F2406244D2442F
:101720004249B2490561828058547DD703A904001B
:101730009396370123A0040063DB060670485E24FD
:10174000918B99C75C401D8E5C5899C33C401D8E9F
:101750005C540C50814626858297FD575A24631DA0
:10176000F5009440F54763E8D706B70740208507A2
:10177000B3D7D700858BA5C31C48232204001CC007
:101780009317370163D80700FD576314F5009C4099
:1017900091E368C84C5823A02401BDDD930744049D
:1017A0006384F5002685F526232A0402B5B70C507C
:1017B0000146854626850297FD572A86E311F5F8EE
:1017C0009C40B5DF75476385E70059476393E7049D
:1017D00023A0240191B7136707045AA47D5535BF90
:1017E00083A90501E38A09F203A905008D8B23A0D3
:1017F000350133093941014791E3D84918C4E35D04
:1018000020F11C540C50CA864E8626858297634769
:10181000A0005E2493E707045EA4C9B7AA99330920
:10182000A940F1BF9C49B9CF011122CC06CE2A8430
:1018300011C51C4D81E72EC61922B24597A700009D
:10184000938787AD639BF5004C408397C50095C790
:1018500022856244F240056171BD97A7000093871D
:10186000A7AD6394F5000C44CDB797A7000093870C
:10187000A7A8E39CF5FC4C44C9BFF2406244014573
:101880000561828001458280411122C406C62A84F6
:101890004EA572A523200500232205002324050060
:1018A0002322050623280500232A0500232C0500F2
:1018B000214681451305C505EFE09F969717000067
:1018C000938727E65CD097170000938747E81CD4DE
:1018D00097170000938727EC5CD497170000938735
:1018E00087EE00D01CD8B240224441018280970587
:1018F0000000938565F3A9A2411126C21306800654
:101900009384F5FFB384C4024AC02E8922C406C65C
:10191000938544071D262A8401CD23200500232218
:101920002501310508C4138684068145EFE05F8FE9
:101930002285B240224492440249410182801C4DDA
:10194000ADE3411106C622C497070000938767FAEA
:101950001CD5938741819C43232405042326050439
:10196000232805046314F50085471CCD2A841D280F
:1019700048C02285052808C422852D2048C4484037
:1019800001469145113708440546A545F53D4844B3
:101990000946C945D53D85471CCCB240224441018A
:1019A0008280828041119387418126C284434AC04C
:1019B00006C69C4C22C42A8999E32685493793841C
:1019C00084048044DC40FD1763D607009C40B9CFF7
:1019D0008440C5BF0317C40039E7C17785072322B8
:1019E00004062320040023220400232404005CC4F2
:1019F00023280400232A0400232C040021468145C7
:101A00001305C405EFE0DF81232A0402232C04021E
:101A100023240404232604042285B2402244924451
:101A20000249410182801304840671BF91454A85B1
:101A3000E13588C051FDB1472320F9000144E9BFD9
:101A4000797122D44AD052CC56CA5AC85EC606D63C
:101A500026D24ECE2A8AAE8A130485040149054B4C
:101A6000FD5B09ECB25022544A8592540259F24966
:101A7000624AD24A424BB24B456182800444832978
:101A80004400FD1963D409000040E1BFDE24637BFC
:101A9000FB008397E40063877701A6855285829ACD
:101AA0003369A90093848406E9BF1971A6DAAE846C
:101AB0008395E500A2DC86DE328463DB0500DE244C
:101AC00023A0060093F7070885E7930700401DA0B1
:101AD000300836C6EF00B054B246E34205FE724706
:101AE000BD67F98F7977BA9793B717009CC2F1BF9A
:101AF000930700041CC0F6506654D6540145096192
:101B00008280DE25011122CC06CE26CA4AC8898BE6
:101B10002E8489CF930774041CC01CC885475CC8F9
:101B2000F2406244D2444249056182807400300030
:101B3000AA84A53FA2452A892685012219E983178F
:101B4000C40013F7072069FFF19B93E727005EA409
:101B5000D1B7970700009387C7D99CD45E2408C0EB
:101B600008C893E707085EA4A2475CC8B24781CFC4
:101B70008315E4002685EF00304D11C55E24F19BEE
:101B800093E717005EA45E243369F900231624014D
:101B900041BFDDC183A7C5FF411122C406C626C2CD
:101BA0001384C5FF63D307003E94AA84EF0010603E
:101BB000938781839C4381EF2322040023AC81829D
:101BC0002244B2402685924441016F00505E637EFC
:101BD000F40014403307D4006396E7009843DC43D5
:101BE000369718C05CC0D9BFBA87D84319C3E37D04
:101BF000E4FE94433386D700631F86001040B296FC
:101C000094C33386D700E31DC7FA10435843B296F6
:101C100094C3D8C375B76375C400B1479CC04DB7B2
:101C20001040B306C4006316D70014435843B2965D
:101C300014C058C0C0C369B78280011126CA9384FA
:101C40003500F19806CE22CC4AC84EC6A104B14751
:101C500063F5F404B14463E4B4042A89EF00105539
:101C60009387818398433A8429E49387C1839C4373
:101C700099E781454A85EF00F02723AEA182A6852A
:101C80004A85EF003027FD5963193507B1472320F6
:101C9000F9004A85EF00B05129A0E3DE04FAB1470C
:101CA0001CC10145F2406244D2444249B249056137
:101CB00082801C40858F63CF0702AD4663F6F60035
:101CC0001CC03E9404C031A05C406313870223AC67
:101CD000F1824A85EF00B04D1305B400930744002C
:101CE00061993307F5405DDF3A94898F1CC05DBF71
:101CF0005CC3C5B72287404085BF13043500719887
:101D0000E30285FCB305A4404A85EF00B01EE31B47
:101D100035FBADBF01114AC803A9850022CC52C4CE
:101D20005AC006CE26CA4EC656C22E84328B368A7A
:101D300063E82609DE2513F7074849C304408C49A8
:101D40005848AA8AB389B4408D44B384E402094751
:101D5000B3C4E402138716004E9763F3E400BA8419
:101D600093F70740B5CFA6855685C13D2A891DE169
:101D7000B14723A0FA005E247D5593E707045EA4D3
:101D8000F2406244D2444249B249224A924A024B4A
:101D9000056182800C484E86EF00D0315E2493F7B7
:101DA000F7B793E707085EA42328240144C84E9997
:101DB000B38434412320240104C4528963732A016B
:101DC000528908404A86DA85EF00F0391C44014503
:101DD000B38727411CC41C403E99232024014DB7E2
:101DE00026865685EF00D03C2A895DFD0C48568535
:101DF0004D33BDBFDE25717126D34AD14ECF06D7F4
:101E000022D552CD56CB5AC95EC762C566C393F779
:101E10000708AA892E89B284B1C39C49A1E393051E
:101E2000000436C6193D2320A9002328A900B24684
:101E300015E1B14723A0F9007D55BA502A549A54B0
:101E40000A59FA496A4ADA4A4A4BBA4B2A4C9A4C1E
:101E50004D61828093070004232AF9009307000252
:101E6000A30CF1029307000302DA230DF10236CE30
:101E7000930B5002979A0000938A0A4E054C294B07
:101E800026841C2099C363987709B30C9440638D12
:101E90000C00E6862686CA854E85AD3DFD57630B50
:101EA000F518D256E69636DA1C2063850718FD57DA
:101EB0009304140002D002D63ED202D4A30101063C
:101EC00082DC8C2015465685EF00501D13841400CB
:101ED000825721E513F7070109C713070002A30181
:101EE000E10613F7870009C71307B002A301E10653
:101EF00094201307A002638AE602B2572684814623
:101F00002546182093051400130707FD6372E606A3
:101F10008DC63ED61DA00504ADB73305554133151A
:101F2000AC00C98F3ED0A28469BF724793064700B8
:101F3000184336CE634707023AD618209307E002CB
:101F4000631DF70418309307A002631BF702F247E2
:101F50000904138747009C433ACE63C107023ED26F
:101F60002DA83307E04093E727003AD63ED0F1B7DB
:101F7000B387670385462E84BA9761B7FD57C5B707
:101F8000050402D281468147254618209305140096
:101F9000130707FD6376E606F9F20C200D46179548
:101FA00000001305E53BEF00700F11CD979700007F
:101FB0009387073B1D8D93070004B397A700025535
:101FC00005045D8D2AD00C201946179500001305D5
:101FD000653993041400230CB102EF00300C25C5C1
:101FE00097E7FFFF9387070295E70257F2471377BA
:101FF000071009CF91073ECED257D2973EDA49B5A6
:10200000B387670385462E84BA9741B79D07E19B46
:10201000A107D5B77808970600009386E6CF4A86D1
:102020000C104E8597000000E7000000FD572A8A3B
:10203000E314F5FC8357C9007D5593F70704E39E2D
:1020400007DE5255DDBB7808970600009386C6CCA4
:102050004A860C104E85FD2ED1BF1C46FD171CC6AE
:1020600063DA0700184E63C5E700A9476394F500DB
:102070006FF0CFCC1C422E851387170018C28CA39B
:102080008280011122CC26CA4AC84EC652C406CE4E
:102090002A89AE893284B304D6007D5A6314940031
:1020A000014501A80C204E864A85453F0504E317EB
:1020B00045FFF2406244D2444249B249224A056196
:1020C0008280357122CD26CB4AC94EC706CF52C574
:1020D00056C35AC1DEDEE2DCE6DAAA89AE84328972
:1020E000368409C51C4D99E3EFF07F859797000072
:1020F000938787226397F40C83A44900DE24A18B85
:10210000FDC39C48EDC393070002A304F1029307AB
:10211000000302D22305F10222C6930B5002979AC4
:102120000000938A6A23054C294B4A841C2099C3DA
:10213000639E770DB30C2441638D0C00E6864A86BE
:10214000A6854E853D3FFD57630FF51C9256E696DA
:1021500036D21C206389071CFD571309140002C8DE
:1021600002CE3ECA02CCA309010482D483450900F1
:1021700015465685252713041900C24751E913F760
:10218000070109C713070002A309E10413F7870039
:1021900009C71307B002A309E10483460900130726
:1021A000A002638FE606F2474A848146254618203E
:1021B00093051400130707FD6377E60AB5CA3ECE00
:1021C00085A897970000938727176395F40083A449
:1021D00089002DB79797000093870712E390F4F2D8
:1021E00083A4C90021BFA6854E85EFF0EFC001DDB5
:1021F0007D55FA406A44DA444A49BA492A4A9A4A19
:102200000A4BF65B665CD65C0D618280050439BFC3
:10221000330555413315AC00C98F3EC82289B9B783
:10222000324793064700184336C6634707023ACE43
:1022300018209307E002631DF70418309307A002EB
:10224000631BF702B2470904138747009C433AC651
:1022500063C107023ECA2DA83307E04093E7270079
:102260003ACE3EC8F1B7B387670385462E84BA9746
:102270003DBFFD57C5B7050402CA814681472546C3
:10228000182093051400130707FD6374E606F9F29E
:102290000C200D46179500001305850C012511CD66
:1022A000979700009387C70B1D8D93070004B39782
:1022B000A700424505045D8D2AC80C2019461795D4
:1022C00000001305250A130914002304B102F923A1
:1022D00035C197E7FFFF9387E7D295E74247B247BB
:1022E0001377071009CF91073EC69257D2973ED277
:1022F0002DBDB387670385462E84BA9751B79D07D6
:10230000E19BA107D5B77800970600009386A6D772
:1023100026860C084E8597000000E7000000FD5758
:102320002A8AE314F5FCDE2493F70704E39207EC12
:102330001255C1B57800970600009386C6D426864C
:102340000C084E85012AE1BF797156CA9C49BA8AA8
:10235000984522D426D24ECE52CC06D64AD05AC860
:102360005EC6AA892E84B284368A63D3E700BA8710
:102370009CC00347340419C385079CC01C4093F7D5
:10238000070281C79C4089079CC003290400137978
:102390006900631A0900130B9401FD5B5C449840CB
:1023A000998F634CF9041C408346340493F7070269
:1023B000B336D000A5EB13063404D2854E85829A3D
:1023C000FD576303F5041C4011469840998B544413
:1023D00081446397C700B384E64063D3040081441B
:1023E0001C4418486354F700998FBE94014969044E
:1023F0007D5B63982405014509A885465A86D285E8
:102400004E85829A631E75017D55B25022549254B6
:102410000259F249624AD24A424BB24B456182802C
:102420000509ADBF3307D40013060003A301C70499
:102430000347540493871600A2978906A381E704F3
:102440009DBF85462286D2854E85829AE30E65FB26
:10245000050945B7797122D426D24AD04ECE06D688
:1024600052CC56CA5AC8B689942D93079006328921
:10247000AA842E8413863504638DF60263E2D706A0
:10248000930780056385F61863EDD700638D0620FA
:1024900093073004638EF60A930A24042301D404BC
:1024A000C9A0930730066385F60A93074006E395B3
:1024B000F6FE1C40084393F6070893054500C5C681
:1024C0001C410CC363D807001307D002B307F040C8
:1024D000A301E40497960000938646E9294765A87E
:1024E000930700076381F61663E5D7029307E006BA
:1024F0006388F6189307F006E390F6FA0C401C4345
:1025000013F80508138547006307080608C39C43B2
:1025100085A893075007E383F6FE93078007638837
:10252000F61293073007E399F6F61C43D041814534
:102530009386470014C383AA07005685852601C5E4
:102540003305554148C05C401CC8A301040461A880
:102550001C43930A2404938647009C4314C323011D
:10256000F4048547D5B793F607041C410CC3B9DAC8
:10257000C207C18781BF93F5050408C3C9D99E234B
:102580001307F0066386E60E97960000938606DE34
:102590002947A30104044C400CC463C5050008404E
:1025A0006D9908C099E3B28A89CDB28AB3F5E70282
:1025B000FD1AB6958C212380BA00B3D5E70263FFDC
:1025C000E70AA147631EF7001C40858B91CB58405A
:1025D0001C4863C7E70093070003A38FFAFEFD1AA8
:1025E0003306564110C84E87CA867000A2852685DC
:1025F000A13B7D5A631D450B7D55B2502254925428
:102600000259F249624AD24A424B45618280A38212
:10261000D50497960000938666D50C40084313F8BE
:1026200005081C411105630D080208C313F71500C6
:1026300001C793E505020CC04147A1FF0C4093F58B
:10264000F5FD0CC0B9B79C4193E707029CC1930705
:102650008007A302F40497960000938666D275BFA4
:1026600013F8050408C3E30308FCC207C1837DBF58
:1026700097960000938686CF214721BFAE873DB74E
:1026800094411C43CC4913F80608138547006306A0
:10269000080008C39C438CC339A008C393F6060402
:1026A0009C43F5DA8EA323280400B28A2DBF144878
:1026B0005686CA8526858299E30045F51C40898B9C
:1026C0008DE7B2474844E35AF5F23E853DB785466B
:1026D0005686CA8526858299E30065F3050A5C441F
:1026E0003247998FE345FAFEE9BF014A930A940104
:1026F0007D5BF5B7411122C42A842E8523AA01846B
:1027000006C6EFE05FC4FD576317F5009387418568
:102710009C4391C31CC0B2402244410182804111BC
:1027200022C42E848395E50006C6F12C634905007A
:102730007C48AA977CC8B2402244410182805E2432
:102740007D777D17F98F5EA4FDB7DE25011122CCC0
:1027500026CA4AC84EC606CE93F70710AA842E840E
:102760003289B68991C78395E500894601460922D9
:102770005E247D777D17F98F5EA48315E4006244A3
:10278000F240CE864A86B24942492685D244056146
:1027900025A8411122C42E848395E50006C6C928C8
:1027A000FD575A24631AF500FD77FD17F98F5EA4D3
:1027B000B2402244410182808567D98F5EA468C8F7
:1027C000C5BF8395E50005A8411122C42A842E8542
:1027D000B285368623AA018406C6EFE03FB3FD57D3
:1027E0006317F500938741859C4391C31CC0B24099
:1027F000224441018280411122C42A842E8523AAC9
:10280000018406C68924FD576317F5009387418527
:102810009C4391C31CC0B2402244410182804111BB
:1028200022C42A842E85B28523AA018406C61524D3
:10283000FD576317F500938741859C4391C31CC0E6
:10284000B240224441018280411122C42A842E8553
:1028500023AA018406C62124FD576317F500938738
:1028600041859C4391C31CC0B240224441018280F7
:10287000411122C42A842E85B285368623AA01847A
:1028800006C6E522FD576317F500938741859C43F3
:1028900091C31CC0B24022444101828093F5F50FE0
:1028A0002A966314C500014582801C21E38EB7FE81
:1028B0000505C5BFB3C7A5008D8B3307C50081E7EC
:1028C0008D4763EDC700AA87637EE50894218507DD
:1028D0008505A38FD7FEE3EBE7FE82809376350074
:1028E000AA8789CA942185078505A38FD7FE93F609
:1028F0003700C5BF9376C7FF138606FE63F0C70691
:1029000083A3050083A2450083AF850003AFC50004
:1029100083AE050103AE450103A3850183A8C5016C
:102920009385450223A0770003A8C5FF23A2570083
:1029300023A4F70123A6E70123A8D70123AAC701EF
:1029400023AC670023AE17019387470223AE07FF2E
:1029500075B790419107910523AEC7FEE3EBD7FE13
:10296000E3E6E7F6828063F1A504B386C500637DE4
:10297000D5029345F6FF8147FD176393F5008280EA
:102980003387F600034807003387C7002A972300E0
:102990000701DDB73387F50014233307F5008507FA
:1029A00014A3E319F6FE82808147E5BF828082800E
:1029B00081E5B2856FF06FA8011122CC06CE26CA40
:1029C0004AC84EC6328401EEEFF0AF9C0149F24096
:1029D00062444A85D2444249B24905618280AE844C
:1029E000AA8981282689E37485FEA2854E85EFF0A9
:1029F000CFA42A8969DDA68522866D3DA6854E85F0
:102A0000EFF02F99E9B7411122C42A842E85B285AF
:102A1000368623AA018406C6B928FD576317F50038
:102A2000938741859C4391C31CC0B240224441011D
:102A3000828083A7C5FF1385C7FF63D50700AA95CA
:102A40009C413E9582809307800523AAF1847D55A1
:102A500082809307800523AAF1847D5582809307A5
:102A6000800523AAF184014582809307800523AA6B
:102A7000F1847D5582809307800523AAF1847D55DA
:102A80008280000020352F313520253032643A25F0
:102A90003032643A253032640A00000054696D65B2
:102AA0003A20253032643A253032643A2530326497
:102AB000000000000200020002000200020002000A
:102AC00002000200020002000200020002000200F6
:102AD00002000200020002000200020002000200E6
:102AE0000200020002000200220023002300230053
:102AF00023002300230023002300230023002300BE
:102B0000230023002300430023002300230043006D
:102B10006400440044004300430044004400440077
:102B2000230023002300430023002300230023006D
:102B300023002300230023004300430043004300FD
:102B4000430043004300430043004300430043006D
:102B5000630043006300630063006300630063007D
:102B6000630063006300630063006300630063004D
:102B7000630063006300630063006300630063003D
:102B80006300630063006300640064006400640029
:102B90006400640064006400640064006400640015
:102BA0006400640064006400640064006400640005
:102BB0006400640002000200020002000200020041
:102BC00002000200020002000200020002000200F5
:102BD00002000200020002000200020002000200E5
:102BE0000200020002000200230023002300230051
:102BF00023002300230023002300230023002300BD
:102C0000230023002300430043004400440043000A
:102C1000230023002300230023002300230023009C
:102C2000230043004300230023002300230023004C
:102C300023002300230023004300430043004300FC
:102C4000430043004300430043004300430043006C
:102C5000630063006300630063006300630063005C
:102C6000630063006300630063006300630063004C
:102C7000630063006300630063006300630063003C
:102C80006300630063006300640064006400640028
:102C90006400640064006400640064006400640014
:102CA0006400640064006400640064006400640004
:102CB0006400640002000200020002000200020040
:102CC00002000200020002000200020002000200F4
:102CD00002000200020002000200020002000200E4
:102CE000020002002200230023002300230023000F
:102CF00023002300230023002300230023002300BC
:102D000023002300430064006400430023002300E9
:102D1000230023002300230023002300230023009B
:102D2000230023002300430043002300230023004B
:102D3000230023002300230023004300430043001B
:102D4000430043004300430043006300430043004B
:102D5000630063006300630063006300630063005B
:102D6000630063006300630063006300630063004B
:102D7000630063006300630063006300630063003B
:102D80006300630063006300640064006400640027
:102D90006400640064006400640064006400640013
:102DA0006400640064006400640064006400640003
:102DB000640064000200020002000200020002003F
:102DC00002000200020002000200020002000200F3
:102DD00002000200020002000200020002000200E3
:102DE000020002002200230023002300230023000E
:102DF000230023002300430043004300430023003B
:102E000023004400640064004300230023002300E7
:102E1000230023004300230023002300230023007A
:102E20002300230023002300440023002300230069
:102E3000230023002300230023004300430043001A
:102E4000430043004300430063006300430043002A
:102E5000630063006300630063006300630063005A
:102E6000630063006300630063006300630063004A
:102E7000630063006300630063006300630063003A
:102E80006300630063006300640064006400640026
:102E90006400640064006400640064006400640012
:102EA0006400640064006400640064006400640002
:102EB000640064000200020002000200020002003E
:102EC00002000200020002000200020002000200F2
:102ED00002000200020002000200020002000200E2
:102EE00002002200230023002300230023004300CC
:102EF0002400240024004400440044004400440012
:102F000064084400440043004300240043002300BD
:102F10002300230023002300230023002300230099
:102F200023004300430023004400430043004300C8
:102F30002300230023002300230023004300430039
:102F40004300430043004300630063004300430029
:102F50006300630063006300630063006300630059
:102F60006300630063006300630063006300630049
:102F70006300630083006300640063006300630018
:102F80006300630063006300640064006400640025
:102F90006400640064006400640064006400640011
:102FA0006400640064006400640064006400640001
:102FB000640064000200020002000200020002003D
:102FC00002000200020002000200020002000200F1
:102FD00002000200020002000200020002000200E1
:102FE0002200230023002300230043004300440069
:102FF0004400440044004400440044004400650888
:103000006508440044004300440044004400430079
:103010004300230023002300230023002300230078
:1030200023004300430043004300430043002300C8
:103030002300230023002300230023004300430038
:103040004300430043004300430043004300630048
:103050004300630063006300630063006300630078
:103060006300630063006300630063006300630048
:103070006300630063006300640063006300630037
:103080006300630083006300640064006400640004
:103090006400640064006400640064006400640010
:1030A0006400640064006400640064006400640000
:1030B000650065000200020002000200020002003A
:1030C00002000200020002000200020002000200F0
:1030D00002000200020002000200020002002300BF
:1030E0002300230023002300240044004400440064
:1030F00044004400650844004400650885086508EC
:10310000450045004400440044004400440044009D
:103110004300430043002300230023002300230037
:1031200023002400440044004300430043002300E4
:103130002300230023002300230023004300430037
:103140004300430043004300430043004300630047
:103150004300630063006300630063006300630077
:103160006300630063006300630063006300630047
:103170006300630063006300630063006300630037
:103180006300630083006300640064006400640003
:10319000640064006400640064006400640064000F
:1031A00064006400640064006400640064006400FF
:1031B0006500650002000200020002000200020039
:1031C00002000200020002000200020002000200EF
:1031D00002000200020002000200020002002200BF
:1031E0002300230024004400440044004400440021
:1031F0006508650865086508850886086508650826
:103200006508450044004400440044004400440074
:1032100044004300430023002300430044006508AA
:103220006508650864006500650065006400440089
:103230002300230023002300230023004300430036
:103240004300430043004300430043004300630046
:103250004300630063006300630063006300630076
:103260006300630063006300630063006300630046
:103270006300630063006300630063006300630036
:1032800063006300830084006400640064006400E1
:10329000640064006400640064006400640064000E
:1032A00064006400640064006400640064006400FE
:1032B0006500650002000200020002000200020038
:1032C00002000200020002000200020002000200EE
:1032D00002000200020002000200020002002300BD
:1032E0002300430044004400440065086508650865
:1032F000650865086508860886106508650865081C
:1033000065086508650865086508440044004400D0
:10331000440043004300440084088508440023001F
:1033200023002300430043004300430044006400A3
:10333000450824002300230023002300430043000A
:103340004300430043004300430043004300630045
:103350004300630063006300630063006300630075
:103360006300630063006300630063006300630045
:103370006300630064006600640063006300630030
:1033800063006300830084006400640064006400E0
:10339000640064006400640064006400640064000D
:1033A00064006400640064006400640064006400FD
:1033B0006500650002000200020002000200020037
:1033C00002000200020002000200020002000200ED
:1033D000020002000200020002000200230023009B
:1033E0002300440044004400450065086508650862
:1033F000860886088610A61086088608660866086D
:103400006508650865086508650064006400640077
:10341000440064008508650844002300230023005D
:103420002300230023002300230023002300230084
:103430004400450844002300230023002300230008
:103440002300430043004300430043004300430084
:103450006300630063006300630063006300630054
:103460006300630063006300630063006300630044
:10347000630063008400660064006400640063000D
:10348000430043006400640064006400640064005E
:10349000640064006400640064006400640064000C
:1034A00064006400640064006500640064006400FB
:1034B0006400640002000200020002000200020038
:1034C000020002000200220022002200220022004C
:1034D000020002000200020002002200230023007A
:1034E00044004400440045086508650886088608CD
:1034F0008608A610C710A6108610861086108610A3
:10350000660865086508650865086500450065008A
:103510008608A5086500240023004300230023003B
:103520002300230023002300230023002300230083
:103530004500E81844004400230023002300230032
:103540002300430043004300430043004300430083
:103550006300630063006300630063006300630053
:103560006300630063006300630063006300630043
:103570006300630083006500630063004300630031
:10358000462125196300640064006400640064003F
:10359000640064006400640064006400640064000B
:1035A00064006400640064006500640083006300DC
:1035B0006400640002000200020002000200020037
:1035C0000200220022004200630043004200220069
:1035D00022000200020023002200230023004400F6
:1035E0004400450045086508650886088610861071
:1035F000A710C718A710A710A7108710861086104D
:103600008608860866086508650865008508A710AD
:103610008608440044004400440043004300230063
:103620002300230023002300230023002300230082
:1036300043006508230024004400230023002300E6
:1036400023002300230043004300430043004300C2
:103650006300630063006300630063006300630052
:103660006300630063006300630063006300630042
:10367000630063008300640083002200A72955A52E
:103680007EEFFBDE67214300640064006400640099
:10369000640064006400640064006400640064000A
:1036A00064006400640064006500640064006400F9
:1036B0006400640002000200020002000200020036
:1036C00002002200420063006300630063004200C6
:1036D00022000200020023002300230023004400F4
:1036E000440045086508860886088610A710A710BC
:1036F000C818A718A718A718A718A718A710A710C1
:10370000861086088608660865088608C61065085B
:103710006500650065004400440043004300430029
:103720002300230023002300230023002300230081
:103730004200230023002300240044002300230030
:1037400023002300230043004300430043004300C1
:103750006300630063006300630063006300630051
:103760006300630063006300630063006300630041
:10377000630063006300630023000D5B5DEFFFFFE8
:10378000FFFFFFFFF0732300640064006400640027
:103790006400640064006400640064006400640009
:1037A00064006400640064006500640064006400F8
:1037B0006400640002000200020002000200020035
:1037C0000200420063006300830063006300620044
:1037D00022002200020022002300230044004400B3
:1037E0004500650866088608A710A710A718E818FE
:1037F000C818C718A818A818A718A718A718A71096
:10380000A710861086088608C710A61065086500F0
:10381000650865006500440044004400440043001E
:103820002300230023002300230023002300230080
:10383000230023002300230023002400440023004E
:1038400023002300230043004300430043004300C0
:103850006300630063006300630063006300630050
:103860006300630063006300630063006300630040
:1038700063006300630022000D5BDFFFFFFFFFFFBB
:10388000FFFFFFFF149D23006400640064006400D8
:103890006400640064006400640064006400640008
:1038A00064006400640064006500640063006400F8
:1038B0006500640002000200020002000200020033
:1038C0002200220063006300630063006300620063
:1038D0004200220022002300230043004400440051
:1038E0006508660886088710A710A810E818E82061
:1038F000C818C818C820C820C818C818C718C710C2
:10390000A710A7108610C718A710660865086508D5
:103910006508650845086408440044004400440004
:10392000430023002300230023002300230023005F
:10393000230023002300230023002300440023004E
:1039400023002300230023002300430043004300FF
:10395000630063006300630063006300630063004F
:10396000630063006300630063006300630063003F
:1039700063006300430067217DEFFFFFFFFFDBD69D
:10398000B394FFFF55A52300640063006400640046
:103990006400640064006400640065006400640006
:1039A00064006400640064006500640063006500F6
:1039B0006500640022000200020002000200020012
:1039C0000200220063008300630063006300620062
:1039D0004200220023002300230044004400650825
:1039E000660886088710A710A818E918E920C820DB
:1039F000E920E920C820C820C820C820C818C81855
:103A0000C710A710E818C818A81066088608650827
:103A100065086508450865086508440044004400D9
:103A2000430043004300230023002300230023001E
:103A3000230023002300230023002300230043004E
:103A400023002300230023002300430043004300FE
:103A5000630063006300630063006300630063004E
:103A6000630063006300630063006300630063003E
:103A7000630063002200728CFFFFFFFFF394C41009
:103A80006621FFFF55A523008400840064006400C4
:103A9000640064006400440023004400A40864003F
:103AA00064006400640064006500640063006400F6
:103AB0006400640002000200020002000200020032
:103AC00002002200420062006300630062006300A3
:103AD0002300230023002300440044004500650820
:103AE00086088710A710C810E8180A21E920E920E5
:103AF000E920E920E928E920E920E920C820C818C0
:103B0000C8180921C818C810C81086088608660891
:103B100066086508650865086508440044004400B7
:103B2000430043002300230023002300230023003D
:103B3000230023002300230023002300230044004C
:103B400043002300230023002300230043004300FD
:103B5000630063006300630063006300630063004D
:103B6000630063006300630063006300630063003D
:103B700063006300830099CEFFFF728C2200220055
:103B8000A829FFFFF49C0200317C6B4243006400D3
:103B90006400640085006B42CC528829159D0D5B42
:103BA000ED5A440064006400650064006400640031
:103BB0008400640002000200020002000200020011
:103BC00002002200420062006300830062004300A2
:103BD00023002300230044004400440065086608D5
:103BE0008710A710A810C8180921E920E920EA28A1
:103BF0000A290A290A290929E928E920E920C820EF
:103C00002A21E918A810A7108710870886088608B7
:103C10006608660866086508650865086408440063
:103C2000430043002300230023002300230023003C
:103C3000230023002300230023002300230024006B
:103C400044002300230023002300230043004300FB
:103C5000630063006300630063006300630063004C
:103C6000630063006300630063006300630063003C
:103C700063004300E5105DE79ACE830043004200F5
:103C80002A3AFFFF11840200928C8C4A22004300E2
:103C9000430023004721BEF7FFFF728CF494938CFE
:103CA000117C03004400640065006400640064004B
:103CB0006400640002000200020002000200020030
:103CC0000200020022004200620062004200230063
:103CD00023002300230044004400450066088608B2
:103CE000A710A810C8180A210A210A210A290A299E
:103CF0002A292A290A310A310A290929E9202A29E7
:103D00000921C818C810A810A710870887088608B6
:103D10008608860866086508650865086508440021
:103D20004400440044002400230023002300230017
:103D3000230023002300230023002300230023006B
:103D400043002300230023002300230043004300FB
:103D5000430063006300630063006300630063006B
:103D6000630063006300630063006300630063003B
:103D700063006300C5081CE7DBD6A40863002200CB
:103D8000CC52FFFF6F634300A731C5108729C929B3
:103D9000A8294721EA3118BE2A4267292621938C97
:103DA0000E5BA8316B42440065006400640064004F
:103DB000640065000200220002000200020002000E
:103DC0000200020002002200420022002200230022
:103DD0002300230043004400450065088608A70827
:103DE000A810C810E9182A210A210A290B292B3109
:103DF0002B312B312B310B310B290A294B312A293D
:103E0000E920C918C918A810A810A7088708A7088A
:103E100086088608860885086508650865006400C8
:103E200064004400430043002300230023002300D8
:103E3000230023002300230023002300230023006A
:103E400023004300230023002300230043004300FA
:103E5000430063006300630063006300630063006A
:103E6000630063006300630063006300630063003A
:103E7000630063004300F8BDFFFF293A42002200BF
:103E8000AF6BFFFF4B42672118BE0D5B5DEFFCDEA1
:103E90003DE756A5AC4A939402004E63F494F49C1B
:103EA000CD52DBD69EEF47194400640064006400E5
:103EB000650065000200020002000200020002002C
:103EC0000200020002000200220022002200230061
:103ED0002300230044004400450066088608A7101C
:103EE000C810E9182A210A210B290B290B312B3183
:103EF0002B310B310A310A292A298C394B310A21FD
:103F0000EA20E918C918C910A810A810A710870836
:103F100087088608860886086608650045006500EB
:103F20006500650865006500440024002300230047
:103F30002300230023002300230023002300230069
:103F400023004300230023002300230043004300F9
:103F50004300630063006300630063006300630069
:103F60006300630063006300630063006300630039
:103F7000630063002200107CFFFF149D22002200DA
:103F8000F49CFFFF87214619F8BD3184F49C59CE7B
:103F90005184B7B54E63BEF759C64E63149D35A51F
:103FA000528476AD95AD4E632400640064006400D5
:103FB000650065000200020002000200020002002B
:103FC0000200020002000200020022002200230080
:103FD000230044004400450065088608A708C8106F
:103FE000C9100A192A210B210B290B292B312C313D
:103FF0008D496F62B283F6A43AC6927BEA200B2900
:104000000A21EA20E918C918C910A810A810A71099
:1040100087088710860886088608A708C710A71093
:10402000870886086608650845086508640844002E
:104030002300230023002300230023002300230068
:1040400023004300430023002300230043004300D8
:104050004300630063006300630063006300630068
:104060006300630063006300630063006300630038
:104070006300630022004A42FFFF9EF7A729420027
:1040800059CE3CE7C508672135A5938C6B4235A511
:10409000093A55A5117CBAD6B3940D5B928C76ADD6
:1040A000149D1CE71CE7D1732300640064006400C6
:1040B000650065000200020002000200020002002A
:1040C000020001002200220002002200230023003F
:1040D000230044004400450866088608A710C9105C
:1040E000C910EA180B198D213032D24A756B3894F9
:1040F0003BCD7EF6BFFFFFFFFFFFCF620B292B29D1
:104100000B210B21EA18C918C918C810C810A8102B
:10411000A81087108710C810C810C810870865003D
:1041200065004400440044002300230024004400B0
:104130004400230023002300230023002300230046
:1041400023002300430023002300230043004300F7
:104150004300630063006300630063006300630067
:104160006300630063006300630063006300630037
:10417000630063004300D0731CE7FFFF76AD672147
:10418000BEF718BE23000932F49CD3942A3A76ADC8
:104190004A42F59C938C6A4202006F6B728C76AD3A
:1041A000159D96AD5284A9294400650065006500FF
:1041B00065006500020002002200020022000200E9
:1041C000020002000200020002002200230023007D
:1041D000430044004500650086088710A810A91018
:1041E0008E3AB353965C7B6DDD759E859E9D9EBD1C
:1041F000DEDD7FFE7FFFFFFF3DE7AD412B312B2949
:104200000B290B210A19EA18E918E910C810A8109F
:10421000A810E910E918C81087086608660865083C
:104220006408440044004400440044004300230068
:104230002400440023002300230023002300230044
:104240002300230043002300230023002300430016
:104250004300630063006300630063006300630066
:104260006300630063006300630063006300630036
:1042700063006300840059C6D7BDFFFFFFFF9ACEDD
:10428000FFFF928C0200AC4AB394359D093A55A5C4
:104290008B4AD494159DE93103003184728CF8BDAA
:1042A0005284D394149D8821440064006500640006
:1042B000640064000200020022000200020002000A
:1042C000020002000200020002002200230023007C
:1042D00044004400450865088608A7108810CC31C2
:1042E0001DBFFFCFFFCFFFC75FAF7D7D1E953EADEA
:1042F000BECD7EF67FFFFFFF3ACE4C394C312C29E4
:104300002C290B210B210A19EA18E910C910C91030
:104310000A190A19A81087088708870886086508F7
:104320006508650865084400240044004300230034
:104330002300230044002400230023002300230043
:1043400023002300430043002300230023004300F5
:104350004300630063006300630063006300630065
:104360006300630063006300630063006300630035
:10437000630043006721BEF718BE1CDFFFFFFFFF8D
:10438000FFFF8B4A03000D5BF073938CC93172847D
:104390008B42D073F4942619230072840E5B39C6C5
:1043A0004B42DFFF39C68408640064006500640086
:1043B0006400640002000200020002000200020029
:1043C000020002000200020002002300230023007A
:1043D00044004400450066088708A810E910155CF1
:1043E000FDB6FFDFFFD79FBF3FA71E7E3D8D3EA5D9
:1043F000DEC5BFEE7FFFFFFFD6A42C314D314D311E
:104400002C290C210B210B19EA18EA18EA182B2188
:104410000A19C810A810A708870887088608660820
:1044200065086508650844004400440043004300F3
:104430002300230024004400240023002300230041
:104440002300230023004300230023002300430014
:104450004300630063006300630063006300630064
:104460006300630063006300630063006300630034
:1044700063002200AB4AFFFF7DEFF7B5FFFFFFFFB0
:10448000FBDEC5104400E510E510C5088400C50832
:10449000A400A4080611840064000619A50889294F
:1044A00066002B42472164006400640065006400DC
:1044B0006400640002000200020001000200020029
:1044C0000200020002000200030023002300440057
:1044D0004400440045088608A70887088F3AF74B30
:1044E0001DB7FFCF7FA73FA73F9F9F767D857EA506
:1044F000FEBD7FDE1FF7BFFF93832D316D314D3140
:104500002D292C292C210B210B190B194C21EA18D0
:10451000C910C910C810A81087088708860866083F
:1045200065086508650844004400440043004300F2
:104530002300230023002300440023002300230042
:104540002300230023004300230023002300430013
:104550004300630063006300630063006300630063
:104560006300630063006300630063006300630033
:1045700063002200117CFFFFFFFFCF7396B5FFFFA2
:10458000D07323008400640064006400640064004D
:1045900064006400640064008400640064004500FA
:1045A0006500440044008500640064006500640008
:1045B00064006400020002000200020022002200E7
:1045C00002002200020023002300230044004400D4
:1045D0004400640065088608A7080919954BB7438D
:1045E0009EBF7E775E675F9F5F97FF76DD855E9DEE
:1045F000DFB55FCEDFEEDEF6705A6E396E394E31C2
:104600004D292D292D212C212C214C21EA18EA1885
:10461000E918C910C910A810A810870886088608CC
:104620006508650865084400440044004300230011
:104630004300230023002300440044002300230000
:104640002300230023004300230023002300230032
:104650004300430063006300630063006300630082
:104660006300630063006300630063006300630032
:104670006300220014A5FFFF76AD6308C5106A42EF
:10468000A4086400640064006400640064006400C2
:1046900064006400640064006400640064006500F9
:1046A00064006500650064006400640065006400E7
:1046B0006400640022000200430022002200220065
:1046C00001002200220022002300230043004400B6
:1046D00045006500650886088708B142F52A394C0F
:1046E0003D775F4F5F5F5F975F97FF765E8E7E9D42
:1046F000BEB51EC69FE6DCDDCF498F398F396E31DE
:104700006E294E294D216D296D290B19EB18EA18D8
:10471000EA18E910C910C910A810A7088708860868
:1047200085086508650865084500440044002400C4
:10473000230023002300230024004400230023003F
:104740002300230023004300230023002300230031
:104750004300430063006300630063006300630081
:104760006300630063006300630063006300630031
:1047700063004300F8BD76ADA40843004300230066
:1047800063008400640064006400640064006400EA
:1047900064006400640064006400640064006400F9
:1047A00065006500650064006400640065006400E5
:1047B00064006400220002002200020002000200E5
:1047C00002000200220022004400440023004400B2
:1047D00045006500860886084B21F43A36235C8E36
:1047E0009E875F4F7F4F5F873F97FF7EDF8EBE9D27
:1047F0007EA5DEBD1FDED9BC8F41AF398F396F3149
:104800006F316E298F298F292D210C190B19EB1867
:10481000EA18EA10C910C910C810A810870886083D
:104820008608650865086508450044008610640828
:10483000430023002300230023002400440023001E
:104840002300230023002300430023002300230030
:104850004300430063006300630063006300630080
:104860006300630063006300630063006300630030
:1048700063006300A831A408430063006300630081
:1048800063008400640064006400640064006400E9
:1048900064006400640064006400640064006400F8
:1048A00065006500650064006400640065006400E4
:1048B0006400640002000200020002000200020024
:1048C000020002002200230065088608240044003C
:1048D0004500650066088708913A521AF94CDFC70F
:1048E000DFD77D7F3E57DF761E971F7F1F8F3E9E4F
:1048F0007E9D7EADBECD968B8F41B041903990317B
:104900008F318F29B0314E212D212D192C190C19E1
:10491000EB18EA18EA10C910A810A810A708870811
:1049200086086508650865084500440044004400A1
:10493000430023002300230023002300440023001E
:10494000230023002300230043002300230023002F
:10495000430043006300630063006300630063007F
:10496000630063006300630063006300630063002F
:10497000630063004200630064006300630063003F
:104980006300630064006400640064006400640009
:1049900064006400640064006400640064006400F7
:1049A00065006500650064006400640065006400E3
:1049B0006400640002000200020002000200020023
:1049C00002000200230023002400440043004400AE
:1049D0004500650066084B199232D21A3E8FFFD708
:1049E000FFDFDFC77C761D761E975F871F8FDF9600
:1049F0007E951EA55DBDD46AB041B041B139B131DB
:104A0000B031D1316F214F214E214D212D192C195B
:104A10000C190B19EA18CA18C910A810A810870891
:104A20008608860865086508650844004300430059
:104A300043002300230043002300230024004400FC
:104A4000230023002300230043002300230023002E
:104A5000430043006300630063006300830063005E
:104A6000630063006300830063006300630063000E
:104A7000630063006300630064006400630063001C
:104A80006400640064006400640064006400640006
:104A900064006400640064006400640064006400F6
:104AA00065006500650064006400640065006400E2
:104AB00064006400010001002200220002002300C3
:104AC000230023002300230023002400440044008B
:104AD0004500650086083032D019765CFFC7DFC715
:104AE000FFCFFFCF5EBF1D7E1EA75F971F871F8F63
:104AF000DD8DDD9CDCA45252D141D141D139D1317F
:104B0000123A902970216F214E214E214D212D21E5
:104B10000C190B19EA18EA10C910C910A810A70837
:104B2000A608860865086508650844004400440036
:104B300043004300430023002300230023004300DD
:104B4000230023002300230043002300230023002D
:104B5000430043006300630063006300630063007D
:104B600063006300630083006300630083006300ED
:104B700063006300630063006300840064006400FA
:104B80006400640063008400840084006400840086
:104B900064006400640064006400640064006400F5
:104BA00064006400650065006400640065006400E2
:104BB00065006500020002002200230002002200BE
:104BC000230022002300230024004400440044006A
:104BD000450045082A11302ACF193B8EFFB7DFA7C1
:104BE000DFA7DFAFFEBF5E9F1EB77FA71F873F8790
:104BF0005E8EBC945A8CF149F241F241D239134293
:104C0000D1319129912990296F216F214E212D2198
:104C10002D212C190B19EA18EA10C910C810A71079
:104C2000A708860866086508650844004400440033
:104C300043004300430023002300230023002300FC
:104C4000230023002300230043004300230023000C
:104C5000430043006300630063006300630083005C
:104C600083008300830063006300630063006300CC
:104C7000630063006300630063006300630063001C
:104C800063006300840064006400630064008400C7
:104C900084008400640064006400640064006400B4
:104CA00084006400640064006400640064006500C3
:104CB0006500650001000100020002000200020020
:104CC00002002200230023002300240044004400AB
:104CD00045006608CE21AF21B021FA45DF5FBF67EE
:104CE000BF7FBF87DF9FFFAF7D9EBD851E7E9F7EFE
:104CF0009E86DD8C9873F241F341F3393442F339E7
:104D0000B231B231B229912970216F214F214E2148
:104D10002D212C190C19EB18EA10C910A810A81095
:104D2000A708860866086508650865084400440009
:104D300043004300430043002300230023002300DB
:104D4000240023002300230043002300230023002A
:104D5000430043006300630063006300630063007B
:104D6000430843086300830063004300630063005B
:104D70006300630064006400640063006300630018
:104D80006300630044004400640064006400640045
:104D90006400440064006400640064006400640013
:104DA00064006400640064006400840063006500C3
:104DB000650065000100010002000200020002001F
:104DC000020022002300230023004400440044008A
:104DD0004400E910CF21AE11AF19B7349F479F4F60
:104DE000BF579F67BF7FDF8F5D861D7D9F7DFF7DE6
:104DF0007E7EBD84F65AF341134234423442D331AD
:104E0000D331D331B329B229912990216F216F2158
:104E10004E212D210C190B19EA18CA10C910A8101F
:104E2000A7108708660866086508650844004400FE
:104E300043004300430043002300230023002300DA
:104E40004400230023002300430023002300230009
:104E5000430043006300630063006300630063007A
:104E60008300A40084006300840084006300630066
:104E7000630063004408A4008400630064008400AD
:104E800084008400A5008400640085006408640038
:104E9000A500A4006400640064006400850085002F
:104EA00065006500650085006400640064006500BD
:104EB000650065000200020002000200020002001C
:104EC0002200220023002300230044004400440069
:104ED00045006C196E1912239222952B5F3F7F3F7C
:104EE000BF477F5F9F6FBF7FBE7E1C757E75BE759F
:104EF0005E765C74955214423442554AF439143A41
:104F0000F439F431D331B329B229912970216F21B9
:104F10004F212D212D210C19EA18CA18C910C810CB
:104F2000A7108708860866086508650844004400DD
:104F300043004300430043002300230023002300D9
:104F40002300230023002300430043002300230009
:104F5000430043006300630063006300630042009A
:104F60004A2259664E3343001555D75D0509430063
:104F7000630043006F3359664A22C508B755595636
:104F800059565956595E8B228B22595EED2A640080
:104F900076559755C6086400640043008C2A595E14
:104FA000395639565956B75D0611640064006400DD
:104FB00065006500020002000200230002002200DA
:104FC0004300230023002300430044004400440026
:104FD000A7088D194D1991225122D32ABE3EFF4EAA
:104FE0007F4F3F571F6F5F6FDE761D753D6D9E6D66
:104FF0005E6EFA6B544A3442754A34423542153A71
:10500000153A153AF439D431D329B22991297021AE
:105010006F214E212D212C190B19EA18C918C9101E
:10502000A810A70887088608650865084500440099
:1050300044004300430043002300230023002300D7
:105040002300430023002300230043002300230008
:1050500043004300630063006300630063002200B9
:10506000EC2AFF6F313C42009A5EFF6FE919430062
:10507000630043007655FF6FED22E5087D67FF6F03
:10508000FF67FF5FFF6F4E2B4E2BFF6FD033640027
:105090001C675D67E6084400640023004E33FF6F21
:1050A000FF67FF67FF679E67471144006400640065
:1050B00065006500020002000200220002002200DA
:1050C0002300230023002300430044004400440045
:1050D0002B194C116D198E19AF215222FD35DF5657
:1050E0001F4F3F57BE66DF6EDE761D75DD6CBE65F9
:1050F0003E6E995B34427552554A354235423542CF
:1051000035423542153AF439D431D331B229912997
:1051100070216F214E212D190B19EA18CA18C910D8
:10512000A810A71087088608650865084500440090
:1051300044004300430043002300230023002300D6
:105140002300430023002300230043002300230007
:1051500043004300630063006300630063002200B8
:10516000EC2AFF6F313C42007A56FF67ED2A22009D
:10517000630084087A5EFF67ED22C5085D5FFF5F0C
:10518000FF5FFF5FFF674E2B4E2BFF6FB033640056
:10519000FC5E3D5FE6084400640024004F2BFF677F
:1051A000FF67FF5FFF679E6747114400640064006C
:1051B0006500650002000200020002000200020019
:1051C00023002300230043004400440044008608D9
:1051D0004B194B116D19AE19CF2111229C3D9F3EE9
:1051E0009F46FF565E5E5F669F6E1D6D9C64BE5D52
:1051F000DE651853554A9652354A564A564A564A1B
:10520000564A364A16421542F539D431B3319229FD
:1052100071216F214E212D192C19EB18EA18C91094
:10522000C810A810A708860865086508450044004E
:105230004400430043004300430043002300230095
:105240002300430023002300230043002300230006
:1052500043004300630063006300630063002200B7
:10526000CC2AFF67113442005A56FF6731342200BE
:10527000430006093C5FFF67ED22E5083D5FBF5F25
:10528000FB6EFB661C6FCD2A2E2BFF67B0338400AC
:10529000FC561D5FE6084400640024004E2BFF67A7
:1052A0007D5FFB661C677A662711640064006400FA
:1052B00065006500020002000200020002002300F7
:1052C0002300230023004300440044004400E9106D
:1052D0002B114B116C198E19CF21F1293A357F3ED4
:1052E0003F46BE4E5E56DE5D3F6E1D657C64BF5D13
:1052F0009E5DB64A9652564A564A77527752775230
:1053000077525752564A364A1642F539D431B329A4
:10531000912970214F214D212C190B19EA18C91818
:10532000C910A810A7088608660865086508440023
:105330004400430043004300430043002300230094
:105340002300230023002300230043002300230025
:1053500043004300630063006300630063002200B6
:10536000CC22FF67F13342003956FF6735454200D2
:105370004300E9199E5FDF5FCC22E5003D579A5656
:1053800026110511261164004F2BFF67903384000E
:10539000BC56FC56E5086400640023002E33FF670A
:1053A0005234C508061106098400640064006400D4
:1053B00065006400020002000200020023002200D7
:1053C00023002300430043004300440065000A110A
:1053D0000A114B116D198D19AF21D02177343E463A
:1053E000DE45FE453F4E9E55BF651D657C5C9F6555
:1053F0001D5DB64A764A764A77527852985A986234
:105400007862785A785A5752364A1642F439D3316C
:10541000B22991216F214E212D190C19EA18C918B2
:10542000C910A810A7088608860865086508440002
:105430004400440043004300430043002300230092
:105440002300230024002300230023002300230043
:1054500043004300630063006300630063002200B5
:10546000CC22FF67F1334200194EDF5FF94D830014
:105470002200AD2ABF5FBF5FAD22E5001D573A4E47
:1054800083004300430023004F2BFF5F902B8400D9
:105490009B56BC56C6086400640023000E2BFF67B1
:1054A000D1330300640044006400640064006400BD
:1054B0006500640022000200020023002300230094
:1054C000230023004300430043004400A6080A11C0
:1054D0000A114B114C19EF213132B0299443FE557A
:1054E0007E459E45DE4D7E553E5DFD5C7C5C9E5D51
:1054F000BC54964A564A7752775A985A9862B86A74
:10550000B872986A986A785A5752364A1542F439EE
:10551000D331912970214E212D210C19EB18EA1855
:10552000C910A810A71086088608650865084400F9
:105530004400440043004300430043002300230091
:105540002300230024002300230023002300230042
:1055500043004300630063006300630063002200B4
:10556000AC22BF5FD1334300F94D9F57BC56E508CD
:105570002200B13B9F577F57AD22E500DD561A4E02
:1055800084006300640023004F2BDF5F6F2B8400D7
:105590007B4E9C56C6086400640023000E2BDF5F20
:1055A000D12B230064006400650065006500650080
:1055B00065006500020002000200020023002300D3
:1055C000230023004300430043004400E810E91097
:1055D0000A112B112C199132354B5342D3423C55B1
:1055E000FD441E4D5E4D5E551D55FD5CBD5C5E5D12
:1055F0005B5C5642774A775A9862996AD97AD9821F
:10560000D98AD982B97A987277625752364A153A4E
:10561000D331B22970216F214E212C190B19EA18B0
:10562000C910C810A710A7088608650865084400B7
:105630004400440043004300430043002300230090
:105640002300230024002300230023002300230041
:1056500043004300630063006300630063002200B3
:10566000AC229F5FB1334200D94D5F571E4FA81146
:105670002200B5445F575F578C1AE500BD4EFA4DC6
:1056800084006300630023002F239F57502B840066
:105690005B4E7C4EC608640064002300EE2A9F57D0
:1056A000B12B2300640064006500650065006400A0
:1056B00065006500020002000200020023002300D2
:1056C000230023004300430043008508E810E90855
:1056D0000A112B112B19D3429863D552974BF83BE3
:1056E000FA431B443B447C4C3E553E5DBD4CDC6460
:1056F0003853564A77529862B86AD97AF98A199318
:10570000389B389B1893D88298727862375215422A
:10571000F431B329912970214E212D190B19EA1862
:10572000C910C810A710A70886086508650864088E
:10573000440044004300430043004300230023008F
:105740002300230024002300230023002300230040
:1057500043004300630063006300630063002200B2
:105760008C225F57B12B4200B94D1F4F1F4F6C1A4F
:10577000420098451F4F1F4F8C1AC5009D4EDA45B9
:1057800084006300630023000F237F57502B8400A5
:105790003B465C4EC608640064002300EE2A7F5737
:1057A000912B2300640064006500640064006400C1
:1057B00065006500020002000200020023002300D1
:1057C00023002300430043004300C708C808E9083A
:1057D0000A112A112B195553F973365BDC4C962BA1
:1057E0003743DA4BDA4B5C4C5E4D1E4DBD4CFA5BD9
:1057F0005542774A985A996AD97AF992199B59A3CE
:1058000058AB58AB38A3189BD98A9872775A364A46
:10581000153AD331922970214F212D190C19EA180C
:10582000CA18C910A810A708860886086508650068
:10583000440044004300430043004300430023006E
:10584000230023002400230023002300230043001F
:105850004300430063006300630063006300420091
:105860006C1A3F4F912B42009945FF4E1F4F502B12
:10587000A4081B4EFE4EFF4E8C1AC5005D4EB94566
:1058800084006400830043000F233F4F302B8400CB
:105890001B463C46C608640064002300EE2A3F4FC6
:1058A000912B2300640065006500640064006400BF
:1058B0006400640022000100220022002300230073
:1058C00023002300440043006400C710A808E91027
:1058D00009110A112B19F87B5B8CB96B1C3DD6336F
:1058E00053327843BA4B5C4CBE4DFD4C3B54964210
:1058F00056427752985AB972F98A99A35BC41CD55B
:105900007CDD5BDDBAC4B8AB1893B97A78625652C5
:105910001542F431B22990214F214D210C190B1958
:10592000EA18C910A810A708860886086508450067
:10593000450044004300430043002300430023008C
:1059400023002300440023002300230023004300FE
:1059500043004300630063006300630063002200B0
:105960006C1A1F4F912B43007945BE46DF463434F5
:1059700047117D469E46BF466C1AC5003C46794598
:105980006308430043002300EF22FF4E2F238400CF
:10599000FB45FC45C608640064002300CE221F4F6F
:1059A000502B030044006400640063006500640041
:1059B0006400640022000200220023002300230070
:1059C00043004300430043008508C708A708C808F0
:1059D000E9100A112B219AACFDACFA63BC343834BF
:1059E000F231953A784BBC4CDF553A44174B153A97
:1059F000564A78529862398B9CBCFEE5FFFE7FFFC9
:105A0000BFFFBFFF9FFFFEEE7BCD78937872575AA2
:105A10001642F439B32991214F214E212C210B1923
:105A2000EA18C910A8108708870886086508450085
:105A3000450044004300430043002300430023008B
:105A400023002300440023002300230023004300FD
:105A500043004300630063006300630063002200AF
:105A60006C1ADF4E712B4200593D5E465D46D634BE
:105A70004A227E461C469E466C1AC5001C467A4544
:105A80004809270927092300EF22DF4E0F2384004E
:105A9000DB3DDC45C608640064002300CE22DF46FF
:105AA0003534EB112C1A6911640063006400640042
:105AB0006400640002000200220022002300230090
:105AC0004300430043004400A608A708A708C808ED
:105AD000E9100A118C29DBD5DDC557439C2CFA341B
